:0400000006EF00F017
:0C000800E0EFFFF0CDECFFF008EF00F09F
:020000040001F9
:10FF9A00946A8B6A956A8C6AC60ED56EF28AF28E5C
:10FFAA0012008B68EEECFFF08B6A12008C68E8ECAA
:10FFBA00FFF08C6A1200F2A41100DBECFFF0D6EC21
:10FFCA00FFF0F2941100270E026FD6500261FDD79E
:10FFDA001200270E036FD65002550361FCD7120098
:10FFEA00280E016FD6500161FDD71200FF0E006F77
:06FFFA00002FFED71200EB
:020000040030CA
:070000001D087F7FF98B91C1
:06000800FFC0FFE0FF4015
:00000001FF
